:020000020000FC
:100000000AC085C09DC018954BC01895B2C0189500
:100010001895189518950FED0DBF08EFD02E0AEF23
:10002000E02E0CEFF02E08E1702E04E0602E00E2CE
:10003000C02E01E0202F07E8302F0FEF01BB0FEBA0
:1000400007BB0FEF02BB07E009B9539A0AE00EBDE8
:10005000E5EEF0E0F796AE2FBF2F0894EE1FFF1FDE
:10006000C895102CEE7FC8951BBC0ABC02E409BFE2
:1000700005E003BF00EC0BBF0AE005BFECB8442766
:10008000552711277894B699FECF959A9698C8BAB5
:10009000C798C79A9598969AC8BAC798C79AF3CF3F
:1000A0005E9ADCB81EF41BBC0ABCE8945E9BFECFD3
:1000B0005E9A471551F553954427852F8370839594
:1000C0009598969888BBC798C79AB69906C08063DA
:1000D000959A969A88BBC798C79A5615B1F4552732
:1000E000112399F0159530F09498ECB85E9BFECFF3
:1000F000949A0AC0159530F09098ECB85E9BFECFAC
:10010000909A02C0ECB81127112743951895B69B19
:1001100015C0EA2FFB2F339511960894EE1FFF1F91
:10012000C895002039F0102CEE7FC8956894002700
:100130000BBF05C03A951197E894C69B11601895BE
:10014000B69B15C0EA2FFB2F3A9511970894EE1F26
:10015000FF1FC895002039F0102CEE7FC8956894D9
:1001600000270BBF05C033951196E894C69B12601B
:10017000189593959170992301F5B69B1EC0632F36
:100180001DD06063362E672F19D06063462E7063D2
:10019000572E959A969838BAC798C79A9598969A6E
:1001A00048BAC798C79A959A969A58BAC798C79A5C
:1001B000232E006C0ABF00EC0BBF189577276A50FE
:1001C00010F07395FCCF665F08950000093D483C30
:1001D0008B3BD43A203A7139C6381F387C37DC362D
:1001E0004036A83512358034F1336533DC3256326F
:1001F000D3315231D4305830DE2F672FF32E802E7A
:10020000102EA22D362DCB2C632CFD2B982B352BAD
:10021000D42A752A172ABB2961290829B0285A2807
:100220000528B22760271027C02672262526D92543
:100230008F254525FD24B62470242B24E723A423F1
:1002400061232023E022A12262222522E821AC2181
:1002500071213721FD20C5208D2056201F20E91F48
:10026000B41F801F4C1F191FE71EB51E841E531E8E
:10027000241EF41DC51D971D6A1D3D1D101DE41C87
:10028000B81C8D1C631C391C0F1CE61BBE1B961B67
:100290006E1B471B201BFA1AD41AAE1A891A641A4D
:1002A000401A1C1AF819D519B21990196E194C195F
:1002B0002B190A19E918C918A91889186A184A18AF
:1002C0002C180D18EF17D117B317961779170000D0
:00000001FF
