:020000020000FC
:100000000AC072C08AC0189546C018959EC018953F
:100010001895189518950FED0DBF08EFD02E0AEF23
:10002000E02E0CEFF02E08E1702E04E0602E00E2CE
:10003000C02EDD27C0E62DE229932BE229932AE288
:10004000299320E3288307E8302F0FEF01BB0FEB44
:1000500007BB0FEF02BB07E009B9539A0AE00EBDD8
:10006000E5E0F1E0F796AE2FBF2F0894EE1FFF1FDB
:10007000C895102CEE7FC8951BBC0ABC02E409BFD2
:1000800005E003BF00EC0BBF0AE005BF442755277E
:1000900011277894FFCF5E9ADCB81EF41BBC0ABC13
:1000A000E8944715F9F4539544275615D9F4552784
:1000B0001123C1F09ED0159538F09498FCB899D0D2
:1000C000ECB897D0949A0DC0159538F09098FCB87C
:1000D00090D0ECB88ED0909A04C0FCB88AD0ECB81E
:1000E00088D0112743951895B69B15C03395119666
:1000F000EA2FFB2F0894EE1FFF1FC895002039F050
:10010000102CEE7FC895689400270BBF05C03A9568
:100110001197E894B69B11601895B69B14C03A9558
:100120001197EA2FFB2F0894EE1FFF1FC8950020A0
:1001300039F0102CEE7FC895689400270BBF04C0DF
:1001400033951196B69B12601895852F8370839511
:100150009598969888BBC798C79A9395B69B1FC0E9
:10016000632F4BD06063362E672F47D06063462ED7
:100170007063572E959A969838BAC798C79A9598EB
:10018000969A48BAC798C79A959A969A58BAC798AD
:10019000C79A232E006C0ABF00EC0BBF1DC0C370B2
:1001A000C0662991112341F010FD17D09598969AB9
:1001B00028BBC798C79A0AC0959A9698C8BAC79894
:1001C000C79A9598969AC8BAC798C79A8063959A1D
:1001D000969A88BBC798C79A1895959A969828BBFF
:1001E000C798C79A11FD08950DB7039503950DBFE4
:1001F000EDCF5E9BFECF5E9A089577276A5010F090
:100200007395FCCF665F08950000093D483C8B3B29
:10021000D43A203A7139C6381F387C37DC3640363C
:10022000A83512358034F1336533DC325632D331A0
:100230005231D4305830DE2F672FF32E802E102EFF
:10024000A22D362DCB2C632CFD2B982B352BD42AAD
:10025000752A172ABB2961290829B0285A28052898
:10026000B22760271027C02672262526D9258F257C
:100270004525FD24B62470242B24E723A4236123E1
:100280002023E022A12262222522E821AC21712133
:100290003721FD20C5208D2056201F20E91FB41FC7
:1002A000801F4C1F191FE71EB51E841E531E241EDF
:1002B000F41DC51D971D6A1D3D1D101DE41CB81CB5
:1002C0008D1C631C391C0F1CE61BBE1B961B6E1B72
:1002D000471B201BFA1AD41AAE1A891A641A401A3C
:1002E0001C1AF819D519B21990196E194C192B1935
:1002F0000A19E918C918A91889186A184A182C186F
:0E0300000D18EF17D117B317961779170000D5
:00000001FF
